{
  "contractName": "ExamSubmission",
  "abi": [
    {
      "inputs": [
        {
          "internalType": "string",
          "name": "_description",
          "type": "string"
        },
        {
          "internalType": "string",
          "name": "_typeOfWork",
          "type": "string"
        },
        {
          "internalType": "uint8",
          "name": "_typeOfSubmission",
          "type": "uint8"
        },
        {
          "internalType": "string",
          "name": "_subject",
          "type": "string"
        },
        {
          "internalType": "uint256",
          "name": "_submissionTime",
          "type": "uint256"
        },
        {
          "internalType": "address[]",
          "name": "_student",
          "type": "address[]"
        },
        {
          "internalType": "address[]",
          "name": "_professor",
          "type": "address[]"
        }
      ],
      "stateMutability": "nonpayable",
      "type": "constructor"
    },
    {
      "inputs": [],
      "name": "getStudent",
      "outputs": [
        {
          "internalType": "address[]",
          "name": "",
          "type": "address[]"
        }
      ],
      "stateMutability": "view",
      "type": "function"
    },
    {
      "inputs": [],
      "name": "getProf",
      "outputs": [
        {
          "internalType": "address[]",
          "name": "",
          "type": "address[]"
        }
      ],
      "stateMutability": "view",
      "type": "function"
    },
    {
      "inputs": [],
      "name": "getDetailsOfExam",
      "outputs": [
        {
          "internalType": "string",
          "name": "",
          "type": "string"
        },
        {
          "internalType": "string",
          "name": "",
          "type": "string"
        },
        {
          "internalType": "string",
          "name": "",
          "type": "string"
        },
        {
          "internalType": "uint256",
          "name": "",
          "type": "uint256"
        },
        {
          "internalType": "uint256",
          "name": "",
          "type": "uint256"
        },
        {
          "internalType": "uint256",
          "name": "",
          "type": "uint256"
        },
        {
          "internalType": "string",
          "name": "",
          "type": "string"
        },
        {
          "internalType": "address[]",
          "name": "",
          "type": "address[]"
        },
        {
          "internalType": "address[]",
          "name": "",
          "type": "address[]"
        },
        {
          "internalType": "enum ExamSubmission.ExamStatus",
          "name": "",
          "type": "uint8"
        }
      ],
      "stateMutability": "view",
      "type": "function"
    },
    {
      "inputs": [],
      "name": "getTimestampOfExamProcess",
      "outputs": [
        {
          "internalType": "uint256",
          "name": "",
          "type": "uint256"
        },
        {
          "internalType": "uint256",
          "name": "",
          "type": "uint256"
        },
        {
          "internalType": "uint256",
          "name": "",
          "type": "uint256"
        },
        {
          "internalType": "uint256",
          "name": "",
          "type": "uint256"
        }
      ],
      "stateMutability": "view",
      "type": "function"
    },
    {
      "inputs": [
        {
          "internalType": "string",
          "name": "_name",
          "type": "string"
        },
        {
          "internalType": "string",
          "name": "_input",
          "type": "string"
        }
      ],
      "name": "submitExam",
      "outputs": [],
      "stateMutability": "nonpayable",
      "type": "function"
    },
    {
      "inputs": [],
      "name": "getTypeOfSubmit",
      "outputs": [
        {
          "internalType": "uint256",
          "name": "",
          "type": "uint256"
        }
      ],
      "stateMutability": "view",
      "type": "function"
    },
    {
      "inputs": [],
      "name": "downloadExam",
      "outputs": [
        {
          "internalType": "string",
          "name": "",
          "type": "string"
        }
      ],
      "stateMutability": "view",
      "type": "function"
    },
    {
      "inputs": [
        {
          "internalType": "uint256",
          "name": "_grade",
          "type": "uint256"
        },
        {
          "internalType": "string",
          "name": "_comment",
          "type": "string"
        }
      ],
      "name": "setGradeAndComment",
      "outputs": [],
      "stateMutability": "nonpayable",
      "type": "function"
    },
    {
      "inputs": [],
      "name": "setStatusInCorrection",
      "outputs": [],
      "stateMutability": "nonpayable",
      "type": "function"
    }
  ],
  "bytecode": "0x60806040523480156200001157600080fd5b506040516200244d3803806200244d8339818101604052810190620000379190620004ad565b6200004e878787878787876200005b60201b60201c565b505050505050506200080f565b6000878160000190805190602001906200007792919062000215565b504281600a016000806004811115620000b9577f4e487b7100000000000000000000000000000000000000000000000000000000600052602160045260246000fd5b81526020019081526020016000208190555084816001019080519060200190620000e592919062000215565b50868160020190805190602001906200010092919062000215565b50858160030160006101000a81548160ff021916908360ff16021790555060008160090160006101000a81548160ff021916908360038111156200016d577f4e487b7100000000000000000000000000000000000000000000000000000000600052602160045260246000fd5b0217905550818160080190805190602001906200018c929190620002a6565b5082816007019080519060200190620001a7929190620002a6565b50838160040181905550600081600501819055506040518060400160405280600181526020017f2d000000000000000000000000000000000000000000000000000000000000008152508160060190805190602001906200020a92919062000215565b505050505050505050565b8280546200022390620006e6565b90600052602060002090601f01602090048101928262000247576000855562000293565b82601f106200026257805160ff191683800117855562000293565b8280016001018555821562000293579182015b828111156200029257825182559160200191906001019062000275565b5b509050620002a2919062000335565b5090565b82805482825590600052602060002090810192821562000322579160200282015b82811115620003215782518260006101000a81548173ffffffffffffffffffffffffffffffffffffffff021916908373ffffffffffffffffffffffffffffffffffffffff16021790555091602001919060010190620002c7565b5b50905062000331919062000335565b5090565b5b808211156200035057600081600090555060010162000336565b5090565b60006200036b620003658462000600565b620005d7565b905080838252602082019050828560208602820111156200038b57600080fd5b60005b85811015620003bf5781620003a488826200040e565b8452602084019350602083019250506001810190506200038e565b5050509392505050565b6000620003e0620003da846200062f565b620005d7565b905082815260208101848484011115620003f957600080fd5b62000406848285620006b0565b509392505050565b6000815190506200041f81620007c1565b92915050565b600082601f8301126200043757600080fd5b81516200044984826020860162000354565b91505092915050565b600082601f8301126200046457600080fd5b815162000476848260208601620003c9565b91505092915050565b6000815190506200049081620007db565b92915050565b600081519050620004a781620007f5565b92915050565b600080600080600080600060e0888a031215620004c957600080fd5b600088015167ffffffffffffffff811115620004e457600080fd5b620004f28a828b0162000452565b975050602088015167ffffffffffffffff8111156200051057600080fd5b6200051e8a828b0162000452565b9650506040620005318a828b0162000496565b955050606088015167ffffffffffffffff8111156200054f57600080fd5b6200055d8a828b0162000452565b9450506080620005708a828b016200047f565b93505060a088015167ffffffffffffffff8111156200058e57600080fd5b6200059c8a828b0162000425565b92505060c088015167ffffffffffffffff811115620005ba57600080fd5b620005c88a828b0162000425565b91505092959891949750929550565b6000620005e3620005f6565b9050620005f182826200071c565b919050565b6000604051905090565b600067ffffffffffffffff8211156200061e576200061d62000781565b5b602082029050602081019050919050565b600067ffffffffffffffff8211156200064d576200064c62000781565b5b6200065882620007b0565b9050602081019050919050565b6000620006728262000679565b9050919050565b600073ffffffffffffffffffffffffffffffffffffffff82169050919050565b6000819050919050565b600060ff82169050919050565b60005b83811015620006d0578082015181840152602081019050620006b3565b83811115620006e0576000848401525b50505050565b60006002820490506001821680620006ff57607f821691505b6020821081141562000716576200071562000752565b5b50919050565b6200072782620007b0565b810181811067ffffffffffffffff8211171562000749576200074862000781565b5b80604052505050565b7f4e487b7100000000000000000000000000000000000000000000000000000000600052602260045260246000fd5b7f4e487b7100000000000000000000000000000000000000000000000000000000600052604160045260246000fd5b6000601f19601f8301169050919050565b620007cc8162000665565b8114620007d857600080fd5b50565b620007e68162000699565b8114620007f257600080fd5b50565b6200080081620006a3565b81146200080c57600080fd5b50565b611c2e806200081f6000396000f3fe608060405234801561001057600080fd5b50600436106100935760003560e01c8063ad6fcd4c11610066578063ad6fcd4c14610117578063b439548d14610121578063babb92be1461013f578063c12df3c314610160578063c7682f341461017e57610093565b80632fe0895514610098578063309867f7146100b65780634387dc4a146100d2578063814ac63e146100f0575b600080fd5b6100a061019a565b6040516100ad919061191e565b60405180910390f35b6100d060048036038101906100cb9190611678565b610434565b005b6100da61082a565b6040516100e79190611836565b60405180910390f35b6100f86109ff565b60405161010e9a99989796959493929190611858565b60405180910390f35b61011f610dc5565b005b61012961103c565b6040516101369190611814565b60405180910390f35b6101476110cd565b6040516101579493929190611939565b60405180910390f35b610168611140565b6040516101759190611814565b60405180910390f35b610198600480360381019061019391906116e4565b6111d1565b005b6000806007016000815481106101d9577f4e487b7100000000000000000000000000000000000000000000000000000000600052603260045260246000fd5b9060005260206000200160009054906101000a900473ffffffffffffffffffffffffffffffffffffffff1673ffffffffffffffffffffffffffffffffffffffff163373ffffffffffffffffffffffffffffffffffffffff1614806102d057506000600701600181548110610276577f4e487b7100000000000000000000000000000000000000000000000000000000600052603260045260246000fd5b9060005260206000200160009054906101000a900473ffffffffffffffffffffffffffffffffffffffff1673ffffffffffffffffffffffffffffffffffffffff163373ffffffffffffffffffffffffffffffffffffffff16145b6102d957600080fd5b6000600801600081548110610317577f4e487b7100000000000000000000000000000000000000000000000000000000600052603260045260246000fd5b9060005260206000200160009054906101000a900473ffffffffffffffffffffffffffffffffffffffff1673ffffffffffffffffffffffffffffffffffffffff163373ffffffffffffffffffffffffffffffffffffffff16148061040e575060006008016001815481106103b4577f4e487b7100000000000000000000000000000000000000000000000000000000600052603260045260246000fd5b9060005260206000200160009054906101000a900473ffffffffffffffffffffffffffffffffffffffff1673ffffffffffffffffffffffffffffffffffffffff163373ffffffffffffffffffffffffffffffffffffffff16145b61041757600080fd5b60008060030160009054906101000a900460ff1660ff1691505090565b6000600701600081548110610472577f4e487b7100000000000000000000000000000000000000000000000000000000600052603260045260246000fd5b9060005260206000200160009054906101000a900473ffffffffffffffffffffffffffffffffffffffff1673ffffffffffffffffffffffffffffffffffffffff163373ffffffffffffffffffffffffffffffffffffffff1614806105695750600060070160018154811061050f577f4e487b7100000000000000000000000000000000000000000000000000000000600052603260045260246000fd5b9060005260206000200160009054906101000a900473ffffffffffffffffffffffffffffffffffffffff1673ffffffffffffffffffffffffffffffffffffffff163373ffffffffffffffffffffffffffffffffffffffff16145b61057257600080fd5b60004281600401541161058457600080fd5b600060038111156105be577f4e487b7100000000000000000000000000000000000000000000000000000000600052602160045260246000fd5b8160090160009054906101000a900460ff166003811115610608577f4e487b7100000000000000000000000000000000000000000000000000000000600052602160045260246000fd5b1480610723575060026003811115610649577f4e487b7100000000000000000000000000000000000000000000000000000000600052602160045260246000fd5b8160090160009054906101000a900460ff166003811115610693577f4e487b7100000000000000000000000000000000000000000000000000000000600052602160045260246000fd5b1415801561072257506003808111156106d5577f4e487b7100000000000000000000000000000000000000000000000000000000600052602160045260246000fd5b8160090160009054906101000a900460ff16600381111561071f577f4e487b7100000000000000000000000000000000000000000000000000000000600052602160045260246000fd5b14155b5b61072c57600080fd5b6000604051806040016040528085815260200184815250905080600d6000820151816000019080519060200190610764929190611558565b506020820151816001019080519060200190610781929190611558565b509050508082600b0160008201518160000190805190602001906107a6929190611558565b5060208201518160010190805190602001906107c3929190611558565b509050504282600a01600060016004811115610808577f4e487b7100000000000000000000000000000000000000000000000000000000600052602160045260246000fd5b8152602001908152602001600020819055506108246001611502565b50505050565b60606000806003811115610867577f4e487b7100000000000000000000000000000000000000000000000000000000600052602160045260246000fd5b8160090160009054906101000a900460ff1660038111156108b1577f4e487b7100000000000000000000000000000000000000000000000000000000600052602160045260246000fd5b14156108bc57600080fd5b600081600b016040518060400160405290816000820180546108dd90611acc565b80601f016020809104026020016040519081016040528092919081815260200182805461090990611acc565b80156109565780601f1061092b57610100808354040283529160200191610956565b820191906000526020600020905b81548152906001019060200180831161093957829003601f168201915b5050505050815260200160018201805461096f90611acc565b80601f016020809104026020016040519081016040528092919081815260200182805461099b90611acc565b80156109e85780601f106109bd576101008083540402835291602001916109e8565b820191906000526020600020905b8154815290600101906020018083116109cb57829003601f168201915b505050505081525050905080602001519250505090565b60608060606000806000606080606060008060000160006001016000600201600060030160009054906101000a900460ff16600060040154600060050154600060060160006007016000600801600060090160009054906101000a900460ff16898054610a6b90611acc565b80601f0160208091040260200160405190810160405280929190818152602001828054610a9790611acc565b8015610ae45780601f10610ab957610100808354040283529160200191610ae4565b820191906000526020600020905b815481529060010190602001808311610ac757829003601f168201915b50505050509950888054610af790611acc565b80601f0160208091040260200160405190810160405280929190818152602001828054610b2390611acc565b8015610b705780601f10610b4557610100808354040283529160200191610b70565b820191906000526020600020905b815481529060010190602001808311610b5357829003601f168201915b50505050509850878054610b8390611acc565b80601f0160208091040260200160405190810160405280929190818152602001828054610baf90611acc565b8015610bfc5780601f10610bd157610100808354040283529160200191610bfc565b820191906000526020600020905b815481529060010190602001808311610bdf57829003601f168201915b505050505097508660ff169650838054610c1590611acc565b80601f0160208091040260200160405190810160405280929190818152602001828054610c4190611acc565b8015610c8e5780601f10610c6357610100808354040283529160200191610c8e565b820191906000526020600020905b815481529060010190602001808311610c7157829003601f168201915b5050505050935082805480602002602001604051908101604052809291908181526020018280548015610d1657602002820191906000526020600020905b8160009054906101000a900473ffffffffffffffffffffffffffffffffffffffff1673ffffffffffffffffffffffffffffffffffffffff1681526020019060010190808311610ccc575b5050505050925081805480602002602001604051908101604052809291908181526020018280548015610d9e57602002820191906000526020600020905b8160009054906101000a900473ffffffffffffffffffffffffffffffffffffffff1673ffffffffffffffffffffffffffffffffffffffff1681526020019060010190808311610d54575b50505050509150995099509950995099509950995099509950995090919293949596979899565b6000600801600081548110610e03577f4e487b7100000000000000000000000000000000000000000000000000000000600052603260045260246000fd5b9060005260206000200160009054906101000a900473ffffffffffffffffffffffffffffffffffffffff1673ffffffffffffffffffffffffffffffffffffffff163373ffffffffffffffffffffffffffffffffffffffff161480610efa57506000600801600181548110610ea0577f4e487b7100000000000000000000000000000000000000000000000000000000600052603260045260246000fd5b9060005260206000200160009054906101000a900473ffffffffffffffffffffffffffffffffffffffff1673ffffffffffffffffffffffffffffffffffffffff163373ffffffffffffffffffffffffffffffffffffffff16145b610f0357600080fd5b600060016003811115610f3f577f4e487b7100000000000000000000000000000000000000000000000000000000600052602160045260246000fd5b8160090160009054906101000a900460ff166003811115610f89577f4e487b7100000000000000000000000000000000000000000000000000000000600052602160045260246000fd5b14610f9357600080fd5b60028160090160006101000a81548160ff02191690836003811115610fe1577f4e487b7100000000000000000000000000000000000000000000000000000000600052602160045260246000fd5b02179055504281600a01600060026004811115611027577f4e487b7100000000000000000000000000000000000000000000000000000000600052602160045260246000fd5b81526020019081526020016000208190555050565b606060006007018054806020026020016040519081016040528092919081815260200182805480156110c357602002820191906000526020600020905b8160009054906101000a900473ffffffffffffffffffffffffffffffffffffffff1673ffffffffffffffffffffffffffffffffffffffff1681526020019060010190808311611079575b5050505050905090565b6000806000806000600a016000808152602001908152602001600020546000600a01600060018152602001908152602001600020546000600a01600060028152602001908152602001600020546000600a0160006003815260200190815260200160002054935093509350935090919293565b606060006008018054806020026020016040519081016040528092919081815260200182805480156111c757602002820191906000526020600020905b8160009054906101000a900473ffffffffffffffffffffffffffffffffffffffff1673ffffffffffffffffffffffffffffffffffffffff168152602001906001019080831161117d575b5050505050905090565b600060080160008154811061120f577f4e487b7100000000000000000000000000000000000000000000000000000000600052603260045260246000fd5b9060005260206000200160009054906101000a900473ffffffffffffffffffffffffffffffffffffffff1673ffffffffffffffffffffffffffffffffffffffff163373ffffffffffffffffffffffffffffffffffffffff161480611306575060006008016001815481106112ac577f4e487b7100000000000000000000000000000000000000000000000000000000600052603260045260246000fd5b9060005260206000200160009054906101000a900473ffffffffffffffffffffffffffffffffffffffff1673ffffffffffffffffffffffffffffffffffffffff163373ffffffffffffffffffffffffffffffffffffffff16145b61130f57600080fd5b60026003811115611349577f4e487b7100000000000000000000000000000000000000000000000000000000600052602160045260246000fd5b600060090160009054906101000a900460ff166003811115611394577f4e487b7100000000000000000000000000000000000000000000000000000000600052602160045260246000fd5b148061142157506003808111156113d4577f4e487b7100000000000000000000000000000000000000000000000000000000600052602160045260246000fd5b600060090160009054906101000a900460ff16600381111561141f577f4e487b7100000000000000000000000000000000000000000000000000000000600052602160045260246000fd5b145b61142a57600080fd5b60004281600a0160006003600481111561146d577f4e487b7100000000000000000000000000000000000000000000000000000000600052602160045260246000fd5b8152602001908152602001600020819055508281600501819055504281600a0160006004808111156114c8577f4e487b7100000000000000000000000000000000000000000000000000000000600052602160045260246000fd5b815260200190815260200160002081905550818160060190805190602001906114f2929190611558565b506114fd6003611502565b505050565b80600060090160006101000a81548160ff02191690836003811115611550577f4e487b7100000000000000000000000000000000000000000000000000000000600052602160045260246000fd5b021790555050565b82805461156490611acc565b90600052602060002090601f01602090048101928261158657600085556115cd565b82601f1061159f57805160ff19168380011785556115cd565b828001600101855582156115cd579182015b828111156115cc5782518255916020019190600101906115b1565b5b5090506115da91906115de565b5090565b5b808211156115f75760008160009055506001016115df565b5090565b600061160e611609846119a3565b61197e565b90508281526020810184848401111561162657600080fd5b611631848285611a8a565b509392505050565b600082601f83011261164a57600080fd5b813561165a8482602086016115fb565b91505092915050565b60008135905061167281611be1565b92915050565b6000806040838503121561168b57600080fd5b600083013567ffffffffffffffff8111156116a557600080fd5b6116b185828601611639565b925050602083013567ffffffffffffffff8111156116ce57600080fd5b6116da85828601611639565b9150509250929050565b600080604083850312156116f757600080fd5b600061170585828601611663565b925050602083013567ffffffffffffffff81111561172257600080fd5b61172e85828601611639565b9150509250929050565b60006117448383611750565b60208301905092915050565b61175981611a29565b82525050565b600061176a826119e4565b6117748185611a07565b935061177f836119d4565b8060005b838110156117b05781516117978882611738565b97506117a2836119fa565b925050600181019050611783565b5085935050505092915050565b6117c681611a78565b82525050565b60006117d7826119ef565b6117e18185611a18565b93506117f1818560208601611a99565b6117fa81611bbc565b840191505092915050565b61180e81611a6e565b82525050565b6000602082019050818103600083015261182e818461175f565b905092915050565b6000602082019050818103600083015261185081846117cc565b905092915050565b6000610140820190508181036000830152611873818d6117cc565b90508181036020830152611887818c6117cc565b9050818103604083015261189b818b6117cc565b90506118aa606083018a611805565b6118b76080830189611805565b6118c460a0830188611805565b81810360c08301526118d681876117cc565b905081810360e08301526118ea818661175f565b90508181036101008301526118ff818561175f565b905061190f6101208301846117bd565b9b9a5050505050505050505050565b60006020820190506119336000830184611805565b92915050565b600060808201905061194e6000830187611805565b61195b6020830186611805565b6119686040830185611805565b6119756060830184611805565b95945050505050565b6000611988611999565b90506119948282611afe565b919050565b6000604051905090565b600067ffffffffffffffff8211156119be576119bd611b8d565b5b6119c782611bbc565b9050602081019050919050565b6000819050602082019050919050565b600081519050919050565b600081519050919050565b6000602082019050919050565b600082825260208201905092915050565b600082825260208201905092915050565b6000611a3482611a4e565b9050919050565b6000819050611a4982611bcd565b919050565b600073ffffffffffffffffffffffffffffffffffffffff82169050919050565b6000819050919050565b6000611a8382611a3b565b9050919050565b82818337600083830152505050565b60005b83811015611ab7578082015181840152602081019050611a9c565b83811115611ac6576000848401525b50505050565b60006002820490506001821680611ae457607f821691505b60208210811415611af857611af7611b5e565b5b50919050565b611b0782611bbc565b810181811067ffffffffffffffff82111715611b2657611b25611b8d565b5b80604052505050565b7f4e487b7100000000000000000000000000000000000000000000000000000000600052602160045260246000fd5b7f4e487b7100000000000000000000000000000000000000000000000000000000600052602260045260246000fd5b7f4e487b7100000000000000000000000000000000000000000000000000000000600052604160045260246000fd5b6000601f19601f8301169050919050565b60048110611bde57611bdd611b2f565b5b50565b611bea81611a6e565b8114611bf557600080fd5b5056fea26469706673582212203d1bd34a41a347a31f565c6b2cec91d4954689fe8ac287c58c62f820ea49bea864736f6c63430008030033",
  "immutableReferences": {},
  "source": "pragma solidity ^0.8.3;\r\n\r\ncontract ExamPool {\r\n\r\n    mapping (address => bool) admin;\r\n    mapping (address => address[]) deployedExamsOfUsers;\r\n    mapping (address => string[]) descriptionOfDeployedExams;\r\n    mapping (address => bool) profs;\r\n    mapping (address => bool) students;\r\n    enum UserType{Professor, Student}\r\n\r\n    // modifirer for restriction to address of Admin\r\n    modifier restrictedToAdmin() {\r\n        require(admin[msg.sender]);\r\n        _;\r\n    }\r\n    function createExam(string memory _description, string memory _typeOfWork, uint8 _typeOfSubmission, string memory _subject, uint  _submissionTime, address [] memory _student, address []memory _professor) public restrictedToAdmin {\r\n        require(profs[_professor[0]] && students[_student[0]]);\r\n        ExamSubmission newExamAddress = new ExamSubmission(_description, _typeOfWork, _typeOfSubmission, _subject, _submissionTime, _student, _professor);\r\n\r\n        for(uint8 prof = 0; prof < _professor.length; prof++)\r\n        {\r\n            address[] storage deployedExamsOfProf = deployedExamsOfUsers[_professor[prof]];\r\n            deployedExamsOfProf.push(address(newExamAddress));\r\n\r\n            string []storage descriptionOfProfs = descriptionOfDeployedExams[_professor[prof]];\r\n            descriptionOfProfs.push(_description);\r\n        }\r\n        for(uint8 student = 0; student < _student.length; student++)\r\n        {\r\n            address[] storage deployedExamsOfStudents = deployedExamsOfUsers[_student[student]];\r\n            deployedExamsOfStudents.push(address(newExamAddress));\r\n            string []storage descriptionOfStudents = descriptionOfDeployedExams[_student[student]];\r\n            descriptionOfStudents.push(_description);\r\n        }\r\n        // descriptionOfDeployedExams[address(newExamAddress)]= _description;\r\n    }\r\n\r\n    function getExamsOfUser(address _user) public view returns(address[] memory) {\r\n        return deployedExamsOfUsers[_user];\r\n    }\r\n\r\n    function getExamsDescriptionsOfUser(address _user) public view returns(string[] memory) {\r\n        return descriptionOfDeployedExams[_user];\r\n    }\r\n\r\n    function createUser(int8 _type, address _userAddress) public restrictedToAdmin {\r\n        require(!profs[_userAddress] && !students[_userAddress]);\r\n        if(UserType(_type) == UserType.Professor){\r\n            profs[_userAddress] = true;\r\n\r\n        }else if (UserType(_type) == UserType.Student) {\r\n            students[_userAddress] = true;\r\n        }\r\n    }\r\n\r\n    function createAdmin() public{\r\n        admin[msg.sender] = true;\r\n    }\r\n\r\n}\r\ncontract ExamSubmission {\r\n\r\n    struct ExamDetails {\r\n        string description;\r\n        string subject;\r\n        string typeOfWork;\r\n        uint8 typeOfSubmission;\r\n        uint submissionTime;\r\n        uint grade;\r\n        string comment;\r\n        address[] student;\r\n        address[] prof;\r\n        ExamStatus status;\r\n        mapping (uint => uint) timestamp;\r\n        Data data;\r\n    }\r\n\r\n    struct Data {\r\n        string nameOfData;\r\n        // string can be a link or a ipfshash\r\n        string ipfshashORlink;\r\n    }\r\n\r\n    ExamDetails exam;\r\n    Data fileData;\r\n    enum ExamStatus { ToSubmit, Submitted, InCorrection, Corrected }\r\n    enum ExamTimestamp { CreatedOn, UploadedOn, InCorrectionOn, GradedOn, CommentedOn }\r\n    enum TypeOfSubmission { Upload, Link }\r\n\r\n\r\n    // modifier for restriction to address of Professor\r\n    modifier restrictedToProf() {\r\n        require(msg.sender == exam.prof[0] || msg.sender == exam.prof[1]);\r\n        _;\r\n    }\r\n\r\n    // modifier for restriction to address of Student\r\n    modifier restrictedToStudent() {\r\n        require(msg.sender == exam.student[0] || msg.sender == exam.student[1]);\r\n        _;\r\n    }\r\n\r\n    constructor(string memory _description, string memory _typeOfWork, uint8 _typeOfSubmission, string memory _subject, uint _submissionTime, address[] memory _student, address[] memory _professor) public {\r\n        createExam(_description, _typeOfWork, _typeOfSubmission, _subject, _submissionTime, _student, _professor);\r\n    }\r\n\r\n    // function create a new Exam\r\n    function createExam(string memory _description, string memory _typeOfWork, uint8 _typeOfSubmission, string memory _subject, uint _submissionTime, address[] memory _student, address[] memory _prof) private {\r\n        ExamDetails storage newExam= exam;\r\n\r\n        newExam.description = _description;\r\n        newExam.timestamp[uint(ExamTimestamp.CreatedOn)] = block.timestamp;\r\n        newExam.subject = _subject;\r\n        newExam.typeOfWork = _typeOfWork;\r\n        newExam.typeOfSubmission = _typeOfSubmission;\r\n        newExam.status = ExamStatus.ToSubmit;\r\n        newExam.prof = _prof;\r\n        newExam.student = _student;\r\n        newExam.submissionTime = _submissionTime;\r\n        newExam.grade = 0;\r\n        newExam.comment = '-';\r\n    }\r\n\r\n    function setStatusOfExam(ExamStatus status) private {\r\n        exam.status = status;\r\n    }\r\n\r\n    /* get Functions */\r\n    // function returns address of student\r\n    function getStudent() public view returns(address[] memory) {\r\n        return exam.student;\r\n    }\r\n\r\n    // function returns address of Professor\r\n    function getProf() public view returns(address[] memory) {\r\n        return exam.prof;\r\n    }\r\n\r\n    // function returns a getSummary of the exam\r\n    function getDetailsOfExam() public view returns(string memory, string memory, string memory,uint, uint, uint, string memory, address[] memory, address[] memory, ExamStatus){\r\n        return(\r\n        exam.description,\r\n        exam.subject,\r\n        exam.typeOfWork,\r\n        exam.typeOfSubmission,\r\n        exam.submissionTime,\r\n        exam.grade,\r\n        exam.comment,\r\n        exam.student,\r\n        exam.prof,\r\n        exam.status\r\n        );\r\n    }\r\n\r\n    // function returns all timestamps\r\n    function getTimestampOfExamProcess() public view returns (uint, uint, uint, uint){\r\n        return(\r\n        exam.timestamp[0],\r\n        exam.timestamp[1],\r\n        exam.timestamp[2],\r\n        exam.timestamp[3]\r\n        );\r\n    }\r\n\r\n    /*\r\n    Student Functions\r\n    -> all functions restricted to Student\r\n    */\r\n\r\n    // function allows student to upload a File\r\n    // Status of exam changes from 'toSubmit' to 'submitted'\r\n    function submitExam(string memory _name, string memory _input) restrictedToStudent public {\r\n        ExamDetails storage newExam = exam;\r\n        require(newExam.submissionTime > block.timestamp);\r\n        require(newExam.status == ExamStatus.ToSubmit || (newExam.status != ExamStatus.InCorrection && newExam.status != ExamStatus.Corrected));\r\n        Data memory data = Data({\r\n        nameOfData:_name,\r\n        ipfshashORlink: _input\r\n        });\r\n        fileData = data;\r\n        newExam.data = data;\r\n\r\n        newExam.timestamp[uint(ExamTimestamp.UploadedOn)] = block.timestamp;\r\n        setStatusOfExam(ExamStatus.Submitted);\r\n    }\r\n    function getTypeOfSubmit() restrictedToStudent restrictedToProf public view returns(uint){\r\n        ExamDetails storage newExam = exam;\r\n        return newExam.typeOfSubmission;\r\n    }\r\n\r\n    /*\r\n    Prof Functions\r\n    -> all functions restricted to Prof\r\n    */\r\n\r\n    // function allows prof to write a comment\r\n    function setComment(string memory _comment) private restrictedToProf {\r\n        require(exam.status != ExamStatus.ToSubmit);\r\n        ExamDetails storage newExam= exam;\r\n        newExam.timestamp[uint(ExamTimestamp.CommentedOn)] = block.timestamp;\r\n        newExam.comment = _comment;\r\n    }\r\n\r\n    // function allows to download the exam file\r\n    function downloadExam() public view returns(string memory) {\r\n        ExamDetails storage newExam = exam;\r\n        require(newExam.status != ExamStatus.ToSubmit);\r\n        Data memory data = newExam.data;\r\n        return data.ipfshashORlink;\r\n    }\r\n\r\n    // function allows professor to set a Grade\r\n    // status changes from 'inCorrection' to 'corrected'\r\n    function setGradeAndComment(uint _grade, string memory _comment ) public restrictedToProf {\r\n        require(exam.status == ExamStatus.InCorrection || exam.status == ExamStatus.Corrected);\r\n        ExamDetails storage newExam= exam;\r\n        newExam.timestamp[uint(ExamTimestamp.GradedOn)] = block.timestamp;\r\n        newExam.grade = _grade;\r\n        newExam.timestamp[uint(ExamTimestamp.CommentedOn)] = block.timestamp;\r\n        newExam.comment = _comment;\r\n        setStatusOfExam(ExamStatus.Corrected);\r\n    }\r\n\r\n    // function allows professor to set the exam in Correction (in Frontend it should be a button)\r\n    function setStatusInCorrection() public restrictedToProf{\r\n        ExamDetails storage newExam = exam;\r\n        require(newExam.status == ExamStatus.Submitted);\r\n        newExam.status = ExamStatus.InCorrection;\r\n        newExam.timestamp[uint(ExamTimestamp.InCorrectionOn)] = block.timestamp;\r\n    }\r\n}\r\n",
  "sourcePath": "C:\\Development\\Bachelor\\CryptoExamSubmission\\ethereum\\contract\\ExamSubmission.sol",
  "compiler": {
    "name": "solc",
    "version": "0.8.3+commit.8d00100c.Emscripten.clang"
  },
  "schemaVersion": "3.3.4",
  "updatedAt": "2021-04-13T16:45:01.115Z",
  "devdoc": {
    "kind": "dev",
    "methods": {},
    "version": 1
  },
  "userdoc": {
    "kind": "user",
    "methods": {},
    "version": 1
  }
}